:100000000C9446000C9465000C9465000C946500FB
:100010000C9465000C9465000C9465000C946500CC
:100020000C9465000C9465000C9465000C946500BC
:100030000C9465000C940C010C9465000C94650004
:100040000C9465000C9465000C9465000C9465009C
:100050000C9465000C9465000C9465000C9465008C
:100060000C9465000C9465000C9465000C9465007C
:100070000C9465000C9465000C9465000C9465006C
:100080000C9465000C9465000C94650011241FBE4F
:10009000CFEFD0E4DEBFCDBF11E0A0E0B1E0E6E2FB
:1000A000F6E000E00BBF02C007900D92A231B1074D
:1000B000D9F721E0A2E1B1E001C01D92AA32B20756
:1000C000E1F70E94BA020C9411030C940000CF9344
:1000D000DF9300D01F92CDB7DEB789837B836A831D
:1000E00089818A3031F48A819B81BC018DE00E9434
:1000F000670080EC90E0FC018081882F90E08072A6
:100100009927892BB1F386EC90E02981FC012083AB
:1001100080E090E00F900F900F90DF91CF910895C5
:10012000CF93DF9300D000D0CDB7DEB769837A8359
:100130008B839C8389819A81AB81BC8180930E01E2
:1001400090930F01A0931001B093110180910E01C3
:1001500090910F01A0911001B091110180931301B2
:1001600090931401A0931501B093160100000F9015
:100170000F900F900F90DF91CF910895CF93DF9361
:10018000CDB7DEB781E890E02BE0FC01208388E862
:1001900090E02DE730E0FC01318320838FE690E092
:1001A00022E0FC01208384E890E0FC0111821082AF
:1001B00080910E0190910F01A0911001B091110159
:1001C0008093130190931401A0931501B09316012D
:1001D0008FE590E02FE530E0F90120812068FC01F7
:1001E00020830000DF91CF910895CF93DF93CDB7A7
:1001F000DEB781E890E0FC0110820000DF91CF9132
:100200000895CF93DF93CDB7DEB781E080931201DD
:100210000000DF91CF9108951F920F9200905F0030
:100220000F92112400905B000F922F933F934F93F6
:100230005F936F937F938F939F93AF93BF93EF934E
:10024000FF93CF93DF93CDB7DEB7809113019091E9
:100250001401A0911501B09116010197A109B109EE
:100260008093130190931401A0931501B09316018C
:100270008091130190911401A0911501B091160184
:10028000892B8A2B8B2B91F40E94010180910E0106
:1002900090910F01A0911001B09111018093130171
:1002A00090931401A0931501B09316010000DF9103
:1002B000CF91FF91EF91BF91AF919F918F917F91DE
:1002C0006F915F914F913F912F910F9000925B0042
:1002D0000F9000925F000F901F901895CF93DF93BF
:1002E000CDB7DEB780912101909122018130910537
:1002F00089F08130910518F0029799F026C081E0CD
:1003000090E0909322018093210110921D011092A0
:10031000170120C082E090E0909322018093210198
:1003200019C0809117018A3038F482E090E09093F0
:100330002201809321010EC081E090E09093220180
:10034000809321011092170105C010922201109292
:1003500021010000809121019091220181309105BD
:1003600059F08130910518F0029751F011C01092A8
:100370001D01109217010CC081E080931D0108C07F
:1003800010921D01809117018F5F8093170100006B
:100390000000DF91CF910895CF93DF93CDB7DEB703
:1003A000809126019091270181309105C1F0813023
:1003B000910518F0029729F145C01092180180911B
:1003C0001E01882329F410922701109226013FC0B4
:1003D00081E090E0909327018093260138C08091BE
:1003E0001E01882339F081E090E0909327018093EB
:1003F00026012DC082E090E0909327018093260192
:1004000026C080911E01882339F081E090E090930E
:100410002701809326011BC080911E01882359F477
:10042000809118018B3038F482E090E0909327019E
:10043000809326010CC01092270110922601109281
:10044000180105C01092270110922601000080912A
:100450002601909127018130910531F0813091057D
:1004600068F0029729F00BC081E080931B0107C060
:10047000809118018F5F8093180101C00000000077
:10048000DF91CF910895CF93DF93CDB7DEB7809101
:10049000280190912901892B09F001C00000809169
:1004A000280190912901892B09F001C0000000006A
:1004B000DF91CF910895CF93DF93CDB7DEB78091D1
:1004C000230190912401892B29F01092240110928C
:1004D000230101C000008091230190912401892B08
:1004E00009F001C000000000DF91CF910895CF9383
:1004F000DF93CDB7DEB78091190190911A01892B56
:1005000029F410921A011092190105C010921A01D3
:100510001092190100008091190190911A01892B04
:1005200009F024C085E290E020911B01222F30E0E9
:10053000220F331F322F20911D01432F422B209178
:100540002001222F30E0220F331F220F331F422BB6
:1005500020911F01222F30E0220F331F220F331F63
:10056000220F331F242BFC01208300000000DF91A9
:10057000CF910895CF93DF93CDB7DEB781E290E0BE
:10058000FC01108282E290E02FEFFC01208384E2E4
:1005900090E02FEFFC01208385E290E0FC011082C7
:1005A00080E290E0FC018081809580931C01809125
:1005B0001C0187708093250180911C01869586958A
:1005C000869580931E0164E670E080E090E00E94D2
:1005D00090000E94BE001092220110922101109200
:1005E00027011092260110922901109228011092E1
:1005F00024011092230110921A01109219010E94F5
:100600006E010E94CC010E9443020E945B020E9484
:1006100077020000809112018823E1F31092120109
:06062000EECFF894FFCFBD
:10062600000000020000000067000000000001005A
:020636000000C2
:00000001FF
